:020000040800F2
:1000000000500020F115000847160008531600089C
:10001000591600085F160008651600080000000069
:100020000000000000000000000000006B16000847
:1000300077160008000000008316000891160008DB
:100040004516000845160008451600084516000824
:100050004516000845160008AD160008E51600080C
:10006000F1160008FD1600084516000845160008A0
:100070004516000809170008491700085517000819
:1000800045160008451600084516000845160008E4
:1000900045160008451600084516000845160008D4
:1000A00045160008451600084516000845160008C4
:1000B00045160008451600084516000845160008B4
:1000C00045160008451600084516000845160008A4
:1000D0004516000861170008451600084516000877
:1000E00045160008451600084516000800000000E7
:1000F0000000000000000000000000000000000000
:0C01000000000000000000005FF808F1A3
:1001100010B5054C237833B9044B13B10448AFF341
:1001200000800123237010BD280000200000000083
:10013000501A000808B5034B1BB103490348AFF33D
:10014000008008BD000000002C000020501A0008AC
:1001500081F0004102E000BF83F0004330B54FEA78
:1001600041044FEA430594EA050F08BF90EA020FE5
:100170001FBF54EA000C55EA020C7FEA645C7FEA78
:10018000655C00F0E2804FEA5454D4EB5555B8BF9B
:100190006D420CDD2C4480EA020281EA030382EA0C
:1001A000000083EA010180EA020281EA0303362D9E
:1001B00088BF30BD11F0004F4FEA01314FF4801C71
:1001C0004CEA113102D0404261EB410113F0004F83
:1001D0004FEA03334CEA133302D0524263EB43033A
:1001E00094EA050F00F0A780A4F10104D5F1200ED8
:1001F0000DDB02FA0EFC22FA05F2801841F1000133
:1002000003FA0EF2801843FA05F359410EE0A5F106
:1002100020050EF1200E012A03FA0EFC28BF4CF037
:10022000020C43FA05F3C01851EBE37101F00045ED
:1002300007D54FF0000EDCF1000C7EEB00006EEBFA
:100240000101B1F5801F1BD3B1F5001F0CD3490884
:100250005FEA30004FEA3C0C04F101044FEA4452DB
:1002600012F5800F80F09A80BCF1004F08BF5FEA62
:10027000500C50F1000041EB045141EA050130BD42
:100280005FEA4C0C404141EB010111F4801FA4F1E5
:100290000104E9D191F0000F04BF01460020B1FA3A
:1002A00081F308BF2033A3F10B03B3F120020CDA72
:1002B0000C3208DD02F1140CC2F10C0201FA0CF050
:1002C00021FA02F10CE002F11402D8BFC2F1200CB5
:1002D00001FA02F120FA0CFCDCBF41EA0C0190406B
:1002E000E41AA2BF01EB0451294330BD6FEA0404B4
:1002F0001F3C1CDA0C340EDC04F11404C4F120029F
:1003000020FA04F001FA02F340EA030021FA04F3B0
:1003100045EA030130BDC4F10C04C4F1200220FA07
:1003200002F001FA04F340EA0300294630BD21FA45
:1003300004F0294630BD94F0000F83F4801306BF0B
:1003400081F480110134013D4EE77FEA645C18BFFF
:100350007FEA655C29D094EA050F08BF90EA020F96
:1003600005D054EA000C04BF1946104630BD91EA8E
:10037000030F1EBF0021002030BD5FEA545C05D191
:100380004000494128BF41F0004130BD14F58004D0
:100390003CBF01F5801130BD01F0004545F0FE4144
:1003A00041F470014FF0000030BD7FEA645C1ABF79
:1003B000194610467FEA655C1CBF0B46024650EAB0
:1003C000013406BF52EA033591EA030F41F40021DC
:1003D00030BD00BF90F0000F04BF0021704730B562
:1003E0004FF4806404F132044FF000054FF0000137
:1003F00050E700BF90F0000F04BF0021704730B5F8
:100400004FF4806404F1320410F0004548BF4042CC
:100410004FF000013EE700BF42004FEAE2014FEA21
:1004200031014FEA02701FBF12F07F4393F07F4FFC
:1004300081F06051704792F0000F14BF93F07F4F2E
:10044000704730B54FF4607401F0004521F0004171
:1004500020E700BF50EA010208BF704730B54FF0F7
:1004600000050AE050EA010208BF704730B511F0FC
:10047000004502D5404261EB41014FF4806404F134
:1004800032045FEA915C3FF4DCAE4FF003025FEAB6
:10049000DC0C18BF03325FEADC0C18BF033202EB3E
:1004A000DC02C2F1200300FA03FC20FA02F001FA98
:1004B00003FE40EA0E0021FA02F11444C1E600BF37
:1004C00070B54FF0FF0C4CF4E06C1CEA11541DBFEA
:1004D0001CEA135594EA0C0F95EA0C0F00F0DEF8B5
:1004E0002C4481EA030621EA4C5123EA4C5350EA9A
:1004F000013518BF52EA033541F4801143F48013EB
:1005000038D0A0FB02CE4FF00005E1FB02E506F07B
:100510000042E0FB03E54FF00006E1FB03569CF0D0
:10052000000F18BF4EF0010EA4F1FF04B6F5007FD6
:1005300064F5407404D25FEA4E0E6D4146EB060648
:1005400042EAC62141EA55514FEAC52040EA5E50D1
:100550004FEACE2EB4F1FD0C88BFBCF5E06F1ED87B
:10056000BEF1004F08BF5FEA500E50F1000041EBB2
:10057000045170BD06F0004646EA010140EA02005F
:1005800081EA0301B4EB5C04C2BFD4EB0C0541EA81
:10059000045170BD41F480114FF0000E013C00F396
:1005A000AB8014F1360FDEBF002001F0004170BDBA
:1005B000C4F10004203C35DA0C341BDC04F11404D3
:1005C000C4F1200500FA05F320FA04F001FA05F25F
:1005D00040EA020001F0004221F0004110EBD3702C
:1005E00021FA04F642EB06015EEA430E08BF20EA58
:1005F000D37070BDC4F10C04C4F1200500FA04F3FB
:1006000020FA05F001FA04F240EA020001F000418C
:1006100010EBD37041F100015EEA430E08BF20EAFF
:10062000D37070BDC4F1200500FA05F24EEA020E47
:1006300020FA04F301FA05F243EA020321FA04F076
:1006400001F0004121FA04F220EA020000EBD3702D
:100650005EEA430E08BF20EAD37070BD94F0000F2D
:100660000FD101F00046400041EB010111F4801F61
:1006700008BF013CF7D041EA060195F0000F18BF12
:10068000704703F00046520043EB030313F4801F4E
:1006900008BF013DF7D043EA0603704794EA0C0F08
:1006A0000CEA135518BF95EA0C0F0CD050EA41061E
:1006B00018BF52EA4306D1D181EA030101F000419B
:1006C0004FF0000070BD50EA410606BF10461946C3
:1006D00052EA430619D094EA0C0F02D150EA0136CF
:1006E00013D195EA0C0F05D152EA03361CBF104610
:1006F00019460AD181EA030101F0004141F0FE41AF
:1007000041F470014FF0000070BD41F0FE4141F432
:10071000780170BD70B54FF0FF0C4CF4E06C1CEA32
:1007200011541DBF1CEA135594EA0C0F95EA0C0FE7
:1007300000F0A7F8A4EB050481EA030E52EA0335A2
:100740004FEA013100F088804FEA03334FF08055C3
:1007500045EA131343EA12634FEA022245EA1115F0
:1007600045EA10654FEA00260EF000419D4208BFA1
:10077000964244F1FD0404F5407402D25B084FEA4E
:100780003202B61A65EB03055B084FEA32024FF4FA
:1007900080104FF4002CB6EB020E75EB030E22BF57
:1007A000B61A754640EA0C005B084FEA3202B6EB17
:1007B000020E75EB030E22BFB61A754640EA5C00C6
:1007C0005B084FEA3202B6EB020E75EB030E22BF56
:1007D000B61A754640EA9C005B084FEA3202B6EB57
:1007E000020E75EB030E22BFB61A754640EADC0016
:1007F00055EA060E18D04FEA051545EA16754FEA78
:1008000006164FEAC30343EA52734FEAC2025FEA95
:100810001C1CC0D111F4801F0BD141EA00014FF024
:1008200000004FF0004CB6E711F4801F04BF0143F5
:100830000020B4F1FD0C88BFBCF5E06F3FF6AFAE11
:10084000B5EB030C04BFB6EB020C5FEA500C50F1A1
:10085000000041EB045170BD0EF0004E4EEA113124
:1008600014EB5C04C2BFD4EB0C0541EA045170BD2B
:1008700041F480114FF0000E013C90E645EA060E6F
:100880008DE60CEA135594EA0C0F08BF95EA0C0F9D
:100890003FF43BAF94EA0C0F0AD150EA01347FF4E5
:1008A00034AF95EA0C0F7FF425AF104619462CE7BC
:1008B00095EA0C0F06D152EA03353FF4FDAE10461F
:1008C000194622E750EA410618BF52EA43067FF470
:1008D000C5AE50EA41047FF40DAF52EA43057FF400
:1008E000EBAE12E74A0011D212F5001211D20DD56B
:1008F0006FF47873B3EB62520ED44FEAC12343F026
:10090000004343EA505323FA02F070474FF00000CF
:10091000704750EA013002D14FF0FF3070474FF07E
:100920000000704780B483B000AF03463960FB71AC
:1009300097F90730002B0BDA0D49FB7903F00F0311
:10094000043B3A68D2B21201D2B20B441A7609E0E3
:10095000084997F907303A68D2B21201D2B20B4473
:1009600083F8002300BF0C37BD4680BC704700BF32
:1009700000ED00E000E100E080B582B000AF7860FB
:100980007B68B3F1807F01D3012311E00A4A7B68C1
:1009900023F07F43013B53600F214FF0FF30FFF7FF
:1009A000C1FF054B00229A60034B07221A60002307
:1009B00018460837BD4680BD10E000E080B485B021
:1009C00000AF7860074B1B68FB6000BF054B1A68DF
:1009D000FB68D21A7B689A42F8D300BF1437BD4631
:1009E00080BC70474400002080B582B000AF00F0AA
:1009F000F1FE0E4B1B680E4A934200D0FEE70B4BF4
:100A00001B680C4AA2FB03239B091846FFF7B4FF9F
:100A100078607B68002B00D0FEE700214FF0FF30AC
:100A2000FFF780FF00BF0837BD4680BD14000020DF
:100A300000127A00D34D621080B584B000AFB96067
:100A40007A603B600346FB73FB7B012B06D15B4A5C
:100A50005A4B5B6943F00103536108E0FB7B022BB7
:100A600005D1564A554B5B6943F001035361BB689E
:100A70001B6803F00103012B09D1B86800F0D2F81C
:100A800000BFBB681B6803F00103012BF9D07A6833
:100A9000BB689A603A68BB68DA60BB68BA695A603A
:100AA000BB681B6823F44072BB681A60FB69002BAB
:100AB00005D0BB681A68FB691A43BB681A60BB683B
:100AC0001B6823F44062BB681A603B6A002B05D0A8
:100AD000BB681A683B6A1A43BB681A60BB681B682C
:100AE00023F44052BB681A607B6A002B05D0BB68B8
:100AF0001A687B6A1A43BB681A60BB6A002B06D16E
:100B0000BB681B6823F04002BB681A6005E0BB6845
:100B10001B6843F04002BB681A60FB6A002B06D1D9
:100B2000BB681B6823F08002BB681A6005E0BB68E5
:100B30001B6843F08002BB681A6097F83430002BC2
:100B400017D1BB681B6823F48042BB681A6097F812
:100B50003030002B06D1BB681B6823F02002BB6835
:100B60001A600CE0BB681B6843F02002BB681A6087
:100B700005E0BB681B6843F48042BB681A6097F8C5
:100B80003830002B06D1BB681B6823F01002BB680D
:100B90001A6005E0BB681B6843F01002BB681A606E
:100BA000BB681B6843F00202BB681A6000BF00BF4D
:100BB00000BF00BF00BF1037BD4680BD001002401F
:100BC00080B483B000AF78600B46FB701346BB70F7
:100BD000FB78012B0BD11149104B5B68BA78013AB5
:100BE0009200012000FA02F213434B600AE00C4924
:100BF0000B4B5B68BA78013A9200012000FA02F2CE
:100C000013434B607B681B6843F001027B681A60EA
:100C100000BF0C37BD4680BC704700BF00000240DB
:100C20000004024080B483B000AF78607B681B682A
:100C300023F001027B681A6000BF0C37BD4680BC00
:100C40007047000080B400AF104A104B9B6943F01E
:100C5000100393610E4A0E4B5B6823F440135360FC
:100C60000B4A0B4B5B6843F400135360084A084B74
:100C70005B6823F440035360054A054BDB6843F48B
:100C80000053D36000BFBD4680BC704700100240D7
:100C90000010014080B483B000AF0346FB71314ABD
:100CA000304B9B6943F0040393612F4A2E4B5B68E2
:100CB00023F0300353602C4A2B4B5B6843F0200336
:100CC0005360294A284B5B6823F0C0035360264ACF
:100CD000254B5B6843F080035360234A224B5B68DB
:100CE00023F440635360204A1F4B5B6843F48063E6
:100CF00053601D4A1C4B5B6823F440735360FB79BF
:100D0000012B29D1184A184B5B6823F440435360E8
:100D1000154A154B5B6843F480435360124A124BEB
:100D20005B6823F4405353600F4A0F4B5B6823F416
:100D3000403353600C4A0C4B5B6843F40033536000
:100D4000094A094B5B6823F440235360064A064B6B
:100D50005B6843F40023536000BF0C37BD4680BC82
:100D6000704700BF001002400008014080B400AF8F
:100D7000194A194B9B6943F008039361174A174BB3
:100D80005B6823F440735360144A144B5B6843F46C
:100D900000735360114A114B5B6823F44063536046
:100DA0000E4A0E4B5B6843F4006353600B4A0B4BD7
:100DB0005B6823F440435360084A084B5B6843F484
:100DC00080435360054A054B5B6823F440535360EE
:100DD00000BFBD4680BC704700100240000C0140BF
:100DE00080B485B000AF78607B6803F00703FB60D8
:100DF0000C4BDB68BB60BA684FF6FF031340BB6067
:100E0000FB681A02BB68134343F0BF6343F400332B
:100E1000BB60044ABB68D36000BF1437BD4680BCCA
:100E2000704700BF00ED00E080B483B000AF034620
:100E3000FB71084997F907305B09FA7902F01F0244
:100E4000012000FA02F241F8232000BF0C37BD4612
:100E500080BC704700E100E080B483B000AF03467F
:100E60003960FB7197F90730002B0BDA0D49FB79DC
:100E700003F00F03043B3A68D2B21201D2B20B4422
:100E80001A7609E0084997F907303A68D2B2120198
:100E9000D2B20B4483F8002300BF0C37BD4680BCA0
:100EA000704700BF00ED00E000E100E080B500AF5A
:100EB0000320FFF795FF01210620FFF7CDFF012159
:100EC0000D20FFF7C9FF01210E20FFF7C5FF01210B
:100ED0000F20FFF7C1FF01212520FFF7BDFF0620EE
:100EE000FFF7A2FF0D20FFF79FFF0E20FFF79CFFEB
:100EF0000F20FFF799FF2520FFF796FF00BF80BD69
:100F000080B487B000AFF860B9601346FB7101236D
:100F1000FB75FB68002B18D0BB68002B15D0002395
:100F20003B610EE03B69FA6813441A783B69B96883
:100F30000B441B789A4201D00023FB753B690133B7
:100F40003B61FA793B699A42ECDCFB7D18461C3721
:100F5000BD4680BC7047000080B582B000AF174B23
:100F60001B889BB203F00103012B0FD100BF134B71
:100F70001B889BB203F02003202BF8D10F4B9B88DA
:100F80000F4B01221A700F48FFF74CFE0B4B1B88CA
:100F90009BB203F01003102B0CD1084B1B889BB2A3
:100FA00003F010037B60054B9B889BB27B60064877
:100FB000FFF738FE00BF0837BD4680BD003801404E
:100FC00049000020440002405800024080B500AFB4
:100FD0000F4B1B6803F40053B3F5005F10D10C4AAC
:100FE0000B4B5B6843F40053536000BF094B1B88F5
:100FF0009BB203F04003402BF8D10748FFF712FEE5
:10100000034A034B5B6843F48053536000BF80BDC9
:1010100000000240003801404400024080B582B028
:1010200000AF1D4B1B6803F40033B3F5003F2FD115
:101030001A4B5B68DAB26FF037039B1ADAB2184BBF
:101040001A7000237B600BE0164A7B681344197802
:10105000154A7B6813440A461A707B6801337B602B
:101060000F4B1B781A467B689A42EDDC0F4B1B78BE
:10107000002B02D00A4B00221A70074A064B5B680D
:1010800043F480335360052201210448FFF798FDA3
:1010900000BF0837BD4680BD000002405800024036
:1010A00014010020180100204C00002049000020FD
:1010B00080B584B000AF786039603B68002B20D0E9
:1010C00000BF124B1B6803F00103012BF9D00F4A3C
:1010D0003B68D3600023FB6002E0FB680133FB60E8
:1010E0003B685A1C3A601B78002BF6D1074AFB6814
:1010F0000133FB60FB685360042201210348FFF7C2
:101100005FFD00BF1037BD4680BD00BF44000240F8
:1011100090B587B000AF7860084611461A4603467E
:10112000FB700B46BB7013467B704FF000034FF013
:101130000004C7E904347B68654A934204D17B7894
:101140001846FFF7A7FD05E07B68624A934201D18C
:10115000FFF70CFE7B685E4A934206D15E4A5E4B07
:101160009B6943F48043936109E07B68594A934249
:1011700005D1594A584BDB6943F48023D3617B681E
:101180009B899BB243F480539AB27B689A817B68B7
:101190001B8A9BB223F440539AB27B681A827B6805
:1011A0009B899BB243F400739AB27B689A81484A48
:1011B000474B9B899BB243F480639BB29381B86A8F
:1011C000FFF708F940A3D3E90023FFF7A3FA03468A
:1011D0000C46C7E90434D7E90401FFF783FB034653
:1011E0009BB21846FFF706F903460C461A462346FB
:1011F000D7E90401FEF7B0FF03460C461846214626
:101200004FF00002354BFFF75BF903460C461846DA
:10121000214600F0D7FB03460C4618462146FFF74F
:1012200061FB0346FB73FB7B0F2B0CD90023FB7385
:101230004FF000022A4BD7E90401FEF78FFF034667
:101240000C46C7E90434D7E90401FFF74BFB03461A
:101250009BB21B019AB2FB7B9BB213449AB27B6890
:101260001A81FB78012B07D17B689B8A9BB243F0E4
:1012700040039AB27B689A82FB78012B07D17B6886
:101280009B8A9BB243F080039AB27B689A827B78F8
:10129000012B0FD10E4A0E4B9B8A9BB243F48073F5
:1012A0009BB293820A4A0A4B9B8A9BB243F4007317
:1012B0009BB2938200BF00BF00BF00BF00BF1C37BE
:1012C000BD4690BDAFF300800000000000203C410F
:1012D000003801400048004000100240000030404B
:1012E0000000F03F80B483B000AF78607B689B89DA
:1012F0009BB243F400539AB27B689A817B689B89C6
:101300009BB243F008039AB27B689A817B689B8901
:101310009BB243F004039AB27B689A817B689B89F5
:101320009BB243F020039AB27B689A817B689B89C9
:101330009BB243F480739AB27B689A817B689B89E5
:101340009BB243F010039AB27B689A8100BF0C37BE
:10135000BD4680BC7047000080B582B000AF644BD2
:101360001B78002B40F0AC80624B1B78042B00F202
:10137000B38001A252F823F08D1300089D130008DA
:10138000B5130008C5130008FD1300085A495B484F
:10139000FFF78EFE574B01221A70A4E0584B1B78C2
:1013A000002B00F09B80564B00221A70514B0222FA
:1013B0001A7093E053495148FFF77AFE4D4B0322D0
:1013C0001A7090E04E4B1B78002B00F089804E493C
:1013D0004A48FFF76DFE4D494848FFF769FE4C4902
:1013E0004648FFF765FE4B494448FFF761FE444B12
:1013F00000221A703F4B04221A7071E0404B1B7898
:10140000002B6FD03E4B00221A7000233B7100234B
:10141000FB710023BB7100237B7112223B493E48C4
:10142000FFF76EFD03463B713B79012B04D13B492D
:101430003248FFF73DFE06E0102234493848FFF7F6
:101440005FFD0346FB71FB79012B04D133492B4827
:10145000FFF72EFE09E03B79002B06D113222B4922
:101460003048FFF74DFD0346BB71BB79012B04D11A
:101470002A492248FFF71CFE0CE0FB79002B09D11A
:101480003B79002B06D1112220492748FFF738FD70
:1014900003467B717B79012B04D120491748FFF764
:1014A00007FE1FE0BB79002B1CD1FB79002B19D163
:1014B0003B79002B16D11D491048FFF7F9FD11E0CB
:1014C0000B4B1B78012B0ED119490C48FFF7F0FD8F
:1014D000074B00221A7006E000BF04E000BF02E0E4
:1014E00000BF00E000BF00BF0837BD4680BD00BFA1
:1014F0004900002048000020681A00080038014018
:1015000014010020781A00088C1A00084C000020F2
:10151000901A0008A81A0008DC1A0008281B000806
:10152000F01A0008001B0008141B0008301B0008FC
:10153000401B000880B58AB00AAFFFF755FAFFF7E5
:1015400081FBFFF7B3FC234B009301230122012110
:101550002148FFF7DDFD01230893002307930023B3
:10156000069301230593002304934FF44053039300
:10157000002302930023019380230093174B184A02
:1015800018490120FFF758FA002308930023079316
:101590000023069301230593002304934FF4405343
:1015A00003930023029300230193802300930E4BA7
:1015B0000B4A0E490120FFF73FFA62B60648FFF7D3
:1015C00091FE052201210948FFF7FAFAFFF7C4FE50
:1015D000FCE700BF00127A00003801400000002044
:1015E0000438014044000240180100205800024025
:1015F000DFF838D072B6002103E00D4B5B58435042
:1016000004310C480C4B42189A42F6D30B4A02E0C4
:10161000002342F8043B0A4B9A42F9D300F0A6F8A3
:1016200000F0ACF9FFF786FF704700000050002083
:10163000581B00080000002028000020280000207F
:10164000E0010020FEE780B400AF00BFBD4680BCD3
:10165000704780B400AFFEE780B400AFFEE780B40F
:1016600000AFFEE780B400AFFEE780B400AF00BF7C
:10167000BD4680BC704780B400AF00BFBD4680BC93
:10168000704780B400AF00BFBD4680BC704700000B
:1016900080B400AF044B1B680133034A136000BFE2
:1016A000BD4680BC704700BF4400002080B500AF3D
:1016B0000A4B00221A604FF47A70FFF77FF9074B4C
:1016C00001221A604FF47A70FFF778F9044A044B4C
:1016D0005B6943F00103536100BF80BDB401224246
:1016E0000004014080B400AF00BFBD4680BC70471D
:1016F00080B400AF00BFBD4680BC704780B400AF6F
:1017000000BFBD4680BC704780B400AF0C4B1B6867
:1017100003F40073B3F5007F08D10A4B01221A606D
:10172000074A074B5B6843F400735360044A044B59
:101730005B6843F48073536000BFBD4680BC704754
:1017400000000240B401224280B500AFFFF73EFC2A
:1017500000BF80BD80B500AFFFF760FC00BF80BD5B
:1017600080B500AFFFF7F8FB00BF80BD80B500AFCC
:10177000154A154B1B6843F0010313601249124BC5
:101780005A68124B13404B600F4A0F4B1B6823F0F3
:10179000847323F4803313600B4A0B4B1B6823F4D0
:1017A00080231360084A084B5B6823F4FE035360F0
:1017B000054B4FF41F029A6000F078F8044B4FF08D
:1017C00000629A6000BF80BD001002400000FFF878
:1017D00000ED00E080B485B000AF0023FB60002383
:1017E000BB6000237B602C4B5B6803F00C03FB6049
:1017F000FB68042B07D0082B09D0002B33D1274BD3
:10180000274A1A6033E0254B254A1A602FE0224B05
:101810005B6803F47013BB601F4B5B6803F4803399
:101820007B60BB689B0C0233BB607B68002B06D1DE
:10183000BB681C4A02FB03F3184A136017E0164BFF
:101840005B6803F40033002B06D0BB68154A02FB2B
:1018500003F3124A13600AE0BB68114A02FB03F368
:101860000E4A136003E00D4B0D4A1A6000BF0A4B8D
:101870005B681B0903F00F030B4AD35CDBB2FB6010
:10188000064B1A68FB6822FA03F3044A136000BF90
:101890001437BD4680BC7047001002401400002081
:1018A00000127A0000093D001800002080B500AF4A
:1018B00000F002F800BF80BD80B483B000AF002309
:1018C0007B6000233B602B4A2A4B1B6843F4803328
:1018D0001360284B1B6803F400333B607B680133C3
:1018E0007B603B68002B03D17B68B3F5A06FF0D120
:1018F000204B1B6803F40033002B02D001233B6014
:1019000001E000233B603B68012B2ED11A4A1A4BA1
:101910001B6843F010031360174A174B1B6823F032
:1019200003031360144A144B1B681360114A114BD4
:101930005B6853600F4A0F4B5B6853600D4A0D4B59
:101940005B6853600B4A0B4B5B6823F003035360E7
:10195000084A084B5B6843F00103536000BF054B26
:101960005B6803F00C03042BF9D100BF0C37BD46B4
:1019700080BC7047001002400020024070B5002576
:101980000C4E0D4CA41BA410A54209D100F060F828
:1019900000250A4E0A4CA41BA410A54205D170BD17
:1019A00056F8253098470135EEE756F82530984728
:1019B0000135F2E7501B0008501B0008501B0008BF
:1019C000541B0008F8B5C1F30A57A7F2FF34132CD3
:1019D00006460D460B468E4617DC002C09DA01340C
:1019E00001F0004303D143F07F5343F4401300223E
:1019F00029E0164921410D4200D188B14FF400235E
:101A00002341734423EA0103F1E7332C0BDDB4F5E2
:101A1000806F05D102460B46FEF7A0FB06460D4639
:101A200030462946F8BD4FF0FF30A7F21347F84083
:101A30000642F5D00121C4F13304A1408A1928BF20
:101A4000013322EA000219461046E7E7FFFF0F00C4
:101A5000F8B500BFF8BC08BC9E467047F8B500BF9B
:081A6000F8BC08BC9E4670476B
:101A680048656C6C6F20576F726C64210000000031
:101A78005768617420697320796F7572206E616D83
:101A8800653F000048692C00506C656173652C2027
:101A980073656E6420636F6D6D616E640000000095
:101AA800416374696F6E5B7475726E5F6F6E202F21
:101AB800207475726E5F6F66665D204C65645B6747
:101AC8007265656E5F6C6564202F207265645F6C5B
:101AD80065645D007475726E5F6F6E206772656510
:101AE8006E5F6C65640000007475726E5F6F6E20C7
:101AF8007265645F6C6564007475726E5F6F6666AC
:101B080020677265656E5F6C656400007475726E3F
:101B18005F6F6666207265645F6C65640000000034
:101B2800446F6E650000000057726F6E6720436F48
:101B38006D6D616E640000005061726974792045B2
:081B480072726F7200000000D0
:041B50003501000853
:041B54001101000873
:101B580074656D70206164647265737300000000C1
:101B68000000000000127A000000000000000000E1
:081B780001020304060708093D
:04000005080015F1E9
:00000001FF
